:020000041FFFDC
:10000000FC1F00101D00FF1FE100FF1FE300FF1F8A
:10001000E500FF1FE700FF1FE900FF1FDFF81840A2
:10002000DFF81050266805EA06062660DFF800F0C3
:100030003D00FF1FFFBFFFFFC0C30F40DFF8702070
:10004000DFF88430DFF88850DFF88860D3F80040AC
:10005000AC4218BFB44201D1DFF8704014604FF4D5
:10006000001240F245134FF0070414611360DFF8EB
:100070004430D3F80020DFF84040D4F80040DFF8E7
:100080003C50D5F80050AC4203D0DFF83420D2F811
:100090000020A2F11F029546DFF8282010470168D2
:1000A0008D464168084701688D4641680847000051
:1000B00084C10F403C041000D0051000DC00FF1F7D
:1000C000D800FF1F6F04FF1FFC020000214365875B
:1000D0006587214378563412FF1F0010CDAB56348C
:1000E0007047FEE7FEE7FEE7FEE7704770477047A0
:1000F0007047FFFF2DE9FC41FE4EDFF8FC83FF4F08
:10010000FF4D0024FE4801AA4621943801F0ABF8C7
:100110000028F7D17A2155F82020401C11700528BD
:10012000F9DB0F23F64A00930523A2F1940001990D
:1001300001F0D7F80028E5D029680978522905D0C0
:10014000542903D0472901D04D2901D1012207E0CC
:100150000022572901D0432901D1012400E00024C5
:10016000D8F808103368994206D03B68994203D00A
:10017000E44B1B68994201D1012A07D032689142B1
:1001800002D03A68914209D1012C07D10F221320E5
:10019000696801F0F4F801F033F8B3E700F046FFC6
:1001A000B0E72DE9F04101F0AAFAD748046801F060
:1001B0009EFAD64FD64ED74D4FF00208C6F80480AF
:1001C000A00301D5022000E0082079690142FCD19A
:1001D00079690142FCD00121716079690142FCD149
:1001E00079690142FCD000207060B068D02100F035
:1001F000C8FA0022032100F0C9FFA00310D5286827
:1002000020F007002860286840F0840028606868B3
:1002100020F007006860686840F0840068600FE0C4
:10022000A86820F00700A860A86840F08100A860D6
:10023000E86820F00700E860E86840F08100E860C6
:10024000B54800F0DDFF00F0FDFFAD48002246217B
:10025000943801F008F8AA48AF49943801F032F810
:10026000002823D0A00310D5286820F007002860BC
:10027000686820F007006860286840F08000286007
:10028000686840F08000686098E7A86820F0070080
:10029000A860E86820F00700E860A86840F08000E7
:1002A000A860E86840F08000E86087E7BDE8F0817A
:1002B0009A48002140F8441C4FF0010140F84C1CC2
:1002C000816550F88C1C48F20C0241EA020140F8AA
:1002D0008C1CC16F41F00C01C167C16F21F00C0192
:1002E000C1678F494FF085008862704710B5FFF7EE
:1002F000DFFF8C48804C00680068A060012000F09F
:10030000D7FFFFF74EFF884800F07AFF7C480022B5
:100310004621943800F0A7FF42F6E0602060824852
:1003200000F06EFF01207649606075484E3901602B
:100330000F3141600F3181600F31C1600F310161B8
:10034000BDE81040D6E62DE9F04101F0D8F9774834
:10035000784D06687648012107682964046801F031
:10036000C6F90021084654F82020401C11440828F2
:10037000F9DB31B9C5F888613846BDE8F041FFF7CF
:100380008EBE0020286491E710B50021614B8122C8
:1003900003EB8104C4F88021491C0829F8D320B953
:1003A000C3F80022C3F8042214E0082103EB8104FF
:1003B000C4F88021491C1029F8D3012802D1C3F8C0
:1003C000042207E0102003EB8001C1F88021401CCB
:1003D0002028F8D3022003EB8001C1F80022401C42
:1003E0002028F8D310BD2DE9FF414B486F4610304F
:1003F0001EC887E81E0001F082F94C4805684E4887
:10040000D0F800804D48066801F071F9494CD4F8E5
:10041000A001800712D4D4F8E40100F0030057F8DB
:100420002000032802D1FFF761FF07E044490E6076
:10043000C1F80002C1F82002FFF7A6FFC4F88851F6
:10044000404604B0BDE8F041FFF729BE10B501F009
:1004500056F92D48046801F04AF9200702D1BDE899
:100460001040C0E7FFF76FFFBDE810403EE72DE901
:10047000F04101F03CF92B481F4D00681D49006810
:10048000A86009681D4E2B4C88420CD03168884208
:1004900009D01C490968884205D0D4F8C00340F44B
:1004A0008040C4F8C00301F02AF9D4F8C00316490B
:1004B00000F48040096821F48041014341F4004088
:1004C000C4F8C0031F4820490068884202D001F0E8
:1004D0000EF9FEE71D484FF0FF310068C01FC0E96C
:1004E000001154F8C40F40F4805020601848194996
:1004F000006831E0CC00FF1F18010010D000FF1F82
:10050000BC010010D400FF1F30041000008009203F
:100510000080004000C002403016FF1F50C10F4055
:1005200000C00040C800FF1F5416FF1FB405100094
:100530005804100000C00F40B8051000F40510006A
:1005400000C00920D0051000CDAB56343C0410008B
:10055000D80510000040034048632648006820602A
:100560002548006820F48030C4F8C400234800689F
:10057000C4F8E00022480068C4F838012148006847
:10058000C4F8EC0020480068C4F81801002060643A
:100590001E48A4F1C4040168491C03D01C4900682A
:1005A000096801601B48006820601B4804681B48FC
:1005B000076801F09CF81A48844204D13846BDE827
:1005C000F041FFF770BD4FF08040006840070DD448
:1005D0001448406D400509D4A8683168884205D0A8
:1005E0001149884202D0BDE8F0417FE6BDE8F04104
:1005F0002CE70000B0051000B4051000BC05100089
:10060000E0051000E4051000F0051000E8051000FA
:10061000EC051000D4051000C8051000CC05100032
:1006200020060820008009207073694E491E08408A
:1006300000D0012070472DE9F0470E4615461F46B1
:10064000002430B1314600F082FE10B10C20BDE82C
:10065000F087692D01D10020F9E704213068FFF708
:10066000E5FF4FF4807960B1642D01D1062467E085
:100670000D24672D01D1022462E0682D11D10324DD
:100680005EE0652D0FD1306848450CD0B0F5007F95
:1006900009D0B0F5806F06D0B0F5805F03D006209A
:1006A000D5E7002C4CD101F02AF83B4930680968A5
:1006B000884205D33949C2190968491C8A4213D9AD
:1006C00037490968884205D33649C2190968491C67
:1006D0008A4209D934490968884207D33349C21983
:1006E0000968491C8A4201D8012100E0002188469E
:1006F0002F490968884207D3C1192E480068401C59
:10070000814201D8012700E0002700F0F0FF662DAC
:1007100004D158EA070013D10E2411E0672D04D14B
:10072000B8F1000F0CD104240AE0682D08D10FB9EC
:10073000052405E049463068FFF778FF00289ED180
:10074000204684E72DE9F04107460C4615460E2663
:1007500000F0D5FF1048006884420CD30F4861199F
:100760000068401C814206D8134879190068401C73
:10077000814200D8002600F0BAFF3046BDE8F08183
:1007800070470246B0FBF1F001FB1022B2EB510FB3
:1007900000D9401C70470000380410003C041000D1
:1007A0006004100064041000680410006C04100061
:1007B000580410005C041000F805100030B57549AD
:1007C00000228A6040F27712B0FBF2F24A604A6877
:1007D0004FF47A72B0FBF2F0C0EB0013B3FBF2F40B
:1007E00000EBC003C3EB8013B3FBF2F3C0EBC0001C
:1007F00000EB8000B0FBF2F04FF4807504F10104CF
:1008000005EB03234FF4803243EA040302EB00407C
:1008100040EA0300086030BD4FF40013C3F88420A1
:1008200031B908B9082000E00320C3F88000704700
:10083000022904D108B90A20F7E70520F5E708B92D
:100840000920F2E70420F0E752494FF0A052103996
:10085000C1F8682F4860062041F88009D1F8E00F00
:10086000C000FBD5704770B50D46044616460421FE
:10087000FFF7DCFE58B904213046FFF7D7FE30B948
:1008800004212846FFF7D2FE08B9022070BD0221DC
:100890002046FFF7CBFE58B902213046FFF7C6FECF
:1008A00030B902212846FFF7C1FE08B9012070BD0A
:1008B000002070BD2DE9F04705460C461646FFF7AF
:1008C000D2FF074601462A460120FFF7A5FFA946A9
:1008D0004FF4001823E037B914F8010BC8F888006A
:1008E0006D1C761E0DE0022F05D102CCC8F88810D1
:1008F0002D1D361F05E034F8021BC8F88810AD1C0A
:10090000B61E40212846FFF791FE40B94846FFF742
:100910009BFFA9462A4639460120FFF77DFF002E9E
:10092000D9D140212846FFF781FE10B14846FFF794
:100930008BFF002008F1800108604861BDE8F08766
:100940002DE9F04107460C461546FFF78CFF064699
:1009500001463A460020FFF75FFF4FF4001010E019
:100960002EB9D0F88C1004F8011B6D1E09E0D0F8E8
:100970008C10022E02D102C42D1F02E024F8021BAB
:10098000AD1E002DECD1002140F8801F4161BDE873
:10099000F0810000900020007FB5FF4D6422A86820
:1009A0006946009BFFF747FE10F0FF041ED1686800
:1009B000672203A9009BFFF73EFE10F0FF0415D14C
:1009C0000023692202A9E868FFF735FEC4B2029845
:1009D000082803D0102801D00C2407E034B90023E4
:1009E000692201A92869FFF726FEC4B20F2220461A
:1009F000296800F0C4FC00F003FCE848002C1ED17C
:100A000000991AE0019929B1416B0904FCD5416BA9
:100A10000904FCD402990829416B4FEA1142039959
:100A200005D101F8012B03910099491E04E021F83A
:100A3000022B03910099891E00910029E2D17FBD0C
:100A400070B5D54CD64E00236922311D6068FFF782
:100A5000F2FD06F114052860B8B900236922A5F15A
:100A60000C01A068FFF7E7FD286070B90023692238
:100A7000A5F10801E068FFF7DEFD286028B93820FD
:100A800030602946304601F0B3FA61680F222868C9
:100A900000F075FC00F0B4FB28680A2808D16168F2
:100AA0000F22686800F06BFCBDE8704000F0A8BB46
:100AB00070BD70B5B84CBA4E00236922311D606814
:100AC000FFF7B9FD06F11405286070B9002369220B
:100AD000A5F10C01A068FFF7AEFD286028B935200C
:100AE00030602946304601F083FA61680F22286899
:100AF00000F045FC00F084FB2868082820D1A948B4
:100B0000A94900680968884207D0A849096888424D
:100B100003D0A7490968884202D100206860A86014
:100B200061680F22686800F02AFC00F069FB6168C8
:100B30000F22A86800F023FCBDE8704000F060BB05
:100B400070BD2DE9F0479B48934902684868012A27
:100B500003D10F220146104657E0914C88460023EE
:100B60006922211DFFF767FD04F11405286040B9D3
:100B70000023692204F10801D8F80800FFF75BFDA3
:100B80002860DFF820928849D9F800000968132707
:100B9000894E884203D085490968884209D100F00E
:100BA000AEFD606818B9A068316888420AD02F602D
:100BB00008E07F490968884206D100F0A0FD60681E
:100BC0000028F0D000F093FD286848B93420206058
:100BD0007A4873490068E0601431714801F008FAFE
:100BE00000F08DFD606850B9A0683168884206D178
:100BF00000F07DFD724800680168C9F8001000F03F
:100C000076FDD8F804100F22286800F0B8FBBDE884
:100C1000F04700F0F5BA70B566485F4E016870683D
:100C2000012903D10F22014610463AE05C4D002312
:100C30006922291DFFF7FFFC05F11404206080B92B
:100C400000236922A4F10C01B068FFF7F4FC2060D6
:100C500038B900236922A4F10801F068FFF7EBFC22
:100C60002060504852490068096888420AD100F063
:100C700046FD544968680968884201D21320206003
:100C800000F035FD206848B9332028604B484449BE
:100C9000006828611431424801F0AAF971680F22F6
:100CA000206800F06CFBBDE8704000F0A9BA70B598
:100CB000394C3B4E00236922311D6068FFF7BBFCB5
:100CC00006F11405286070B900236922A5F10C0112
:100CD000A068FFF7B0FC286028B9322030602946B0
:100CE000304601F085F961680F22286800F047FB63
:100CF000BDE8704000F084BA38B5274D0023692262
:100D000069466868FFF797FCC4B20F2220466968FD
:100D100000F035FB00F074FA002C04D1009800B10B
:100D2000012000F0C5FA38BD7CB51B4D00236922B7
:100D300001A96868FFF77FFC002369226946A8685B
:100D4000FFF779FC10F0FF0419D10198B0F5165F98
:100D50000FD0B0F5964F0CD0B0F5164F09D0B0F5C6
:100D6000614F06D0B0F5E13F03D0B0F5613F00D050
:100D700011240098012802D0022800D012240F224A
:100D80002046696800F0FBFA00F03AFA002C1FD107
:100D90000A48026818E00000BC0100100080092029
:100DA000D001001020010010CC00FF1FD000FF1F59
:100DB000D400FF1F1C010010400410001801001097
:100DC000C800FF1F20051000DDE9001000F0DEF96B
:100DD0007CBD38B5E14C0023692269466068FFF7A5
:100DE0002AFC10F0FF0009D10099A1F5B4425A3A4B
:100DF00003D1DB4A0021116000E010200F2261685E
:100E000000F0BDFA00F0FCF938BD38B5D448D34D38
:100E1000006840B90024D348696800F053FA20B94B
:100E2000D14800900AE00F240FE0002366226946B3
:100E30006868FFF700FC10F0FF0406D1A86800788E
:100E400054280ED0412800D00C240F222046696877
:100E500000F095FA00F0D4F9002C01D100988047F9
:100E600038BD009840F001000090EEE72DE9FC4706
:100E7000BA4D002364226946A868FFF7DCFB10F036
:100E8000FF0406D16868662201A9009BFFF7D3FB27
:100E9000C4B20F222046296800F071FA00F0B0F9C0
:100EA000002C47D1DFF8C4A2DDE900870026DAF87C
:100EB000409034460121CAF84010DAF8400032E090
:100EC0002D2D00DD2D252A46A949019800F0DAFADA
:100ED0000644A74800F094F940BB0198641C2844DC
:100EE00001900098401B0090142C00D0D8B90F221C
:100EF0009F49304600F043FA00F082F90022462173
:100F00009B4800F0B0F910F0FF0F0FD195499848B9
:100F1000C91E00F0D7F910B9DDE9008701E0CDE97D
:100F2000008700242646009D002DC9DCCAF84090A9
:100F3000DAF84000BDE8FC87F0B585B0874D642243
:100F4000A86802A9029BFFF776FB10F0FF040DD101
:100F50006868672204A9029BFFF76DFBC4B2042CEA
:100F600001D10E2402E0022C00D10D2400F0C7FBB9
:100F70008048814900680968884207D17F48049900
:100F8000006800F50070814200D2132400F0AFFB2E
:100F90000F222046296800F0F2F900F031F9002C08
:100FA00042D12546029F049E3BE06A464621704896
:100FB00000F059F9002837D1009868B16D1C01AADA
:100FC0006B48049900F0FDF9044404990198014428
:100FD00004910299081A0290142D01D0029800BBC6
:100FE000002000906A464621614800F03CF90099D3
:100FF000C0B20029F6D0002816D103A95C4800F041
:10100000A6F90398844204D15648029FC01E049E4C
:1010100003E054480297401D049600F0F1F80025C3
:101020002C4602980028C0DC05B0F0BD70B54B4DD1
:1010300028680078413817287CD2DFE800F01B18B8
:101040007C8B7F8B128B821E5A8B852F8B788B0F1C
:101050008B88158B0C00BDE870406DE7BDE87040D3
:1010600004E7BDE87040D0E6BDE87040B1E6BDE8F9
:10107000704059E6BDE870403EE600F040FB404855
:10108000046800F034FB0F220020696800F077F953
:1010900000F0B6F80F222046696842E000F02FFB0E
:1010A00038480F2204680020696800F068F900F0F1
:1010B000A7F869680F22206800F061F900F0A0F835
:1010C00069680F22606800F05AF900F099F86968C1
:1010D0000F22A06800F053F900F092F869680F221F
:1010E000E06800F04CF900F08BF8BDE8704000F0CB
:1010F000FEBA00F004FB2448046800F0F8FA0F225E
:101100000020696800F03BF900F07AF80F22E0B2A5
:10111000696800F034F900F073F8C4F307200F2277
:10112000696800F02CF9BDE8704000F069B8BDE8CE
:101130007040BCE50EE0BDE870406CE5BDE8704075
:10114000FFE4BDE87040B4E4BDE8704078E4BDE879
:10115000704021E40F2201206968E2E7BC01001021
:101160001C0100105716FF1F7004100000C00F4034
:101170002801001020010010D400FF1F38041000C7
:1011800030041000DC0510003404100010B50C46CB
:1011900062B11A21414310464FF47A725043FFF76F
:1011A000F0FA012C01D1032400E0072442494A69E6
:1011B0005206FCD58022CA600860001248600020F8
:1011C000C86001208860CC6010BD3B494A69920626
:1011D000FCD50860704738494869C007FCD00868EA
:1011E000364AC0B21268002A03D04A699206FCD57A
:1011F0000860704700B5FFF7EEFF1128FBD100BD76
:1012000010B52D4C030015D011E05B1CFFF7DDFF7E
:101210006069C0070BD02068C0B21B2801D1012033
:1012200010BD132803D1FFF7D6FF1128FBD1187882
:101230000028EAD10D20FFF7C8FF0A20FFF7C5FFFD
:10124000002010BD1C484169C90702D00068012078
:101250007047002070471A488068800800E0401EF0
:101260000028FCD1704770B50546164600234C1E79
:10127000FFF7B1FF1B2801D1012070BD0D2803D05D
:101280000A2801D0A34210D10020E85406B13360EF
:10129000FFF7E1FF0948006828B1FFF7D3FF10B15D
:1012A0000A20FFF792FF002070BDE8545B1CDFE7C7
:1012B000024908607047000000C00040240100108F
:1012C0000080004010B5002203E00BB9002010BDE3
:1012D000521C835C8C5CA342F7D0805C895C401A12
:1012E00010BD2DE9F0430646894600203178079F5E
:1012F0000446054609B9BDE8F0830021BF1E22E07F
:1013000000F1010C9C4520DC16F801C0BCF1200F57
:1013100008D0BD4206DA52F8208008F804C0641CE8
:101320006D1C0FE006EB010C9CF801C0BCF1200F16
:1013300001D1BD4206D1002552F820C0401C0CF856
:1013400004502C46491C4945DADD401CD3E770B5F2
:10135000002422466FF02F0509E0A3F13006092E84
:101360000BD804EB840405EB44041C44521C835C3E
:10137000002BF2D100200C6070BD012070BD10B5B3
:101380000023521E8B540A2478B93020521E8854F0
:101390000EE0B0FBF4F304FB1300521E092801D841
:1013A000303000E03730885418460AB10028F0D1B8
:1013B000881810BD602801D1002070472038C0B2C5
:1013C0007047F0B50346002635460078FFF7F2FF78
:1013D0000446401E2C284CD85B1C48E0032C26DB1E
:1013E0001878FFF7E7FF87005878FFF7E3FF47EA31
:1013F000101008705878FFF7DDFF07019878FFF7A5
:10140000D9FF47EA90004870D878FFF7D3FF074626
:101410009878FFF7CFFF47EA8010887008784F78F8
:10142000ED1C38448F78C91C3E4406441DE0012C55
:101430000CDB1878FFF7BEFF87005878FFF7BAFF7C
:1014400047EA10100870C0B26D1C0644022C0CDB79
:101450005878FFF7AFFF07019878FFF7ABFF47EA2F
:1014600090004870C0B26D1C06441B1DE41E002C89
:10147000B4DC30461560F0BD08B9602070472030FC
:10148000C0B2704770B503460024D0B2FFF7F4FF36
:1014900001F8010B2EE0032A05DB5D789E781878B1
:1014A0003444284405E0022A05D15D7818782E4698
:1014B0002844044402E01D782E462C441878800805
:1014C000FFF7DAFF087018788007800E00EB151020
:1014D000FFF7D2FF48702807800E00EB9610FFF749
:1014E000CBFF887006F03F00FFF7C6FFC870091DEC
:1014F000DB1CD21E002ACEDC00200870204670BD06
:10150000044A516C21F01803102100B908210B4343
:101510005364704700C002402DE9F0410446066A5A
:10152000407CA57C0F4640283ED1A5F1100007283D
:1015300037D8522084F835000F2084F83100102D60
:1015400003D1002084F8320007E0142D05D3D22007
:1015500084F83700112084F833001C20162D01D3A5
:1015600044F21C0060834FF4FE7001D344F2FC503F
:101570002083691E204609F0D9FBF80503D544F203
:1015800001410B4A05E00B4A44F20501162D00D338
:10159000094E0A48334602432046BDE8F04109F0AF
:1015A000D0BB0748BDE8F0810548401CFAE70000C1
:1015B000000011BB000013EB00808832FF3FC00029
:1015C00007000200202A04DB0023203A00FA02F17F
:1015D00006E000FA02F39140C2F12002D04001433C
:1015E0001846704740EA01039B070AD102E008C988
:1015F000121F08C0042AFAD203E011F8013B00F8D8
:10160000013B521EF9D27047D2B201E000F8012B23
:10161000491EFBD270470022F6E710B50446084683
:10162000114602462046FFF7EFFF204610BD7047E7
:1016300053796E6368726F6E697A656400000000AA
:101640000100000002000000030000000000000094
:101650005A5A00004F4B007445735400524553458D
:101660004E4400FF0CBFFF1FFFFFFFFFFFFFFFFF08
:10167000FFFFFFFFFFFFFFFF44BEFF1FFFFFFFFF56
:10168000FFFFFFFF2DE9F047D1E90275D1F8048093
:1016900081460C4616462A4639464046FFF752F820
:1016A0003060002812D1002D10D02069FFF786F895
:1016B000B9F1000F2A463946404603D1BDE8F0474C
:1016C000FFF73EB9BDE8F047FFF7F4B8BDE8F08793
:1016D000324900200864FEF709BE0A380521B0FB34
:1016E000F1F0401C00E0401E0028FCD170474FF490
:1016F0000010016821F0400101601020EDE74FF477
:101700000010016841F0400101601020E5E72DE97B
:10171000F0410D460446002300F10C0164221846F6
:10172000FEF789FF286000282AD16622211DE36880
:10173000FEF781FF2860002822D1662204F108010B
:10174000E368FEF778FF2860002819D1DFF84CC065
:10175000D4E902216068DCF840700123CCF8403005
:10176000DCF8403011E013680668B3420AD00A2161
:1017700029606168401A6860CCF84070DCF840006D
:10178000BDE8F081121D001D091F0029EBD1CCF826
:101790004070DCF8400000202860F1E700C00F40F6
:1017A00070B54FF4001634680A46356940F20511E9
:1017B00031600721316103680021323B0D2B48D293
:1017C000DFE803F0070B0F131B35173C2047473F9B
:1017D0004200114600F0ABFA3DE0114600F0EEF990
:1017E00039E0114600F029F935E0114600F054F8CF
:1017F00031E01146FFF78BFF2DE01160FFF77FFF0F
:10180000164818E01160FFF77AFF1548016809686B
:10181000516001684968916001688968D160006819
:10182000C0681061FFF763FFFFF761FF13E011600D
:10183000FFF765FF0B4800685060F3E7FFF748FFCC
:1018400009E00146012001E001460020FFF71AFFF0
:1018500001E0012010603460356170BD300410007B
:10186000DC0510003404100000B502460B46FFF7FB
:1018700046FFFF4801688A4201D88B4202D9FFF730
:1018800036FF03E0FFF733FF9A4201D9072000BD7E
:10189000FFF72DFF002000BDF0B50D46044681681E
:1018A00000264068FFF7E0FF2860002822D1FFF7FC
:1018B00026FFF048616850F82120EF49A0681746DC
:1018C00051F82030FFF713FFEC486168A1B9066CAE
:1018D00001210164016C0FE01168491C0BD0082143
:1018E0002960D11B69601168A9606168002901D174
:1018F0000664006CF0BD121D9A42EDD3616809B90F
:101900000664006C00202860F0BD10B5029C0160E8
:1019100022B1136010681842FCD110BD2068400746
:10192000FCD010BD2DE9F74F92464FF4001B002765
:10193000DBF8042082B0B9460521914355D1044615
:1019400031E0224600210120FFF73CFE074341EA37
:101950000909FFF7D4FEC748CA4950F82450C848BF
:1019600005F5801500684FF00108884205D1102C5C
:1019700001D0112C01D14FF00808FFF7B8FE002666
:10198000DC460DE0C5F800A0002360461A4648F288
:101990008711CDF800C0FFF7B8FF05F58055761C1C
:1019A0004645EFD3641C03988442CAD9FFF7A7FECB
:1019B000B5480068C01FBAF1000F06D1D0E9003267
:1019C000BB4322EA0902C0E900321AF1010106D143
:1019D000D0E900213A4341EA0901C0E90021FFF7BB
:1019E00086FE002005B0BDE8F08F0B20FAE72DE958
:1019F000F04100250F462E46044607E0224600210E
:101A00000120FFF7DFFD05430E43641CBC42F5D9FE
:101A1000FFF775FE9C480068C01FD0E900472C40C6
:101A20003740FFF764FE002387EA030184EA0300DE
:101A3000084300D00920BDE8F0812DE9F84F8A461F
:101A4000044681684068FFF70FFFCAF800000028CD
:101A50007ED1D4E90101FFF7CAFFCAF800000028CF
:101A600076D1FFF74CFE8949E06809684FF4001B06
:101A7000B0FBF1F0CBF81C00854AE06812684FF02B
:101A80000109504309EB502040F40040CBF8080016
:101A9000D4E9015085422CD027E0FFF730FE75488D
:101AA000784950F82560764806F5801600684FF0B2
:101AB0000108884203D1102D01D14FF00808FFF72B
:101AC00016FE0027DC460DE0C6F8009000236046B5
:101AD0001A4648F28511CDF800C0FFF716FF06F54B
:101AE00080567F1C4745EFD36D1CA068401EA8425E
:101AF000D3D2FFF704FE5F49A068624A51F8205034
:101B00005F490027096805F58015914204D1102826
:101B100001D0112800D10727FFF7E9FDCC460026A8
:101B2000D84648F285190CE0C5F800C000234046AD
:101B30001A464946CDF80080FFF7E7FE05F58055C7
:101B4000761CBE42F0D3C5F800C00720454600E031
:101B500014E0C8F8E80F4F4B009300231A4641F2F7
:101B600081114046FFF7D1FED4E901014FF0FF3269
:101B7000FFF7D8FECAF800000020E861BDE8F88F42
:101B800030B5012508E010C910C0AC0703D100E052
:101B9000641C9442FCD36D1C9D42F4D930BD00B549
:101BA0004FF40012536805229A4301D00B2000BD68
:101BB00040230422FFF7E4FF002000BD2DE9FF5F72
:101BC000804640680190D8F808000290D8F80C00D0
:101BD0000D4600230390652203A91846FEF72BFD4E
:101BE000286000286FD1682201A9039BFEF723FD1E
:101BF0002860002879D1672202A9039BFEF71BFD0C
:101C00002860002871D10198002700F5801001900C
:101C1000FFF775FD00241848154912E050F82430EC
:101C2000D8F804209A420BD21146D8F80C2003F1C0
:101C300001001144814201D8274605E0671C03E0FA
:101C4000641C0A689442E9D9FFF751FD39462046E1
:101C5000FFF7CDFE2860002847D1FFF750FD0B4964
:101C6000D8F8100009684FF40016B0FBF1F013E04B
:101C700040041000900410002005100000C00F4028
:101C80004404100032334E4C3C0410005404100045
:101C900050041000E00F2000F0612D49D8F810002A
:101CA00009684843012101EB502040F40048FFF748
:101CB0001EFD4FF000094FF0070CDFF898A041F22D
:101CC000831B03982BE010E0002330461A4640F2B5
:101CD00007110096FFF719FEDDE90101FFF75FFF2D
:101CE00028B10B202860C6F81C90BDE8FF9F304645
:101CF000C6F8E8CFC6F8088000231A465946CDF842
:101D000000A0FFF702FE019800F580700190029894
:101D100000F5807002900398A0F580700390002871
:101D2000D2D1421E39462046FFF7FCFDDBE770B5F5
:101D30000D46044681684068FFF796FD286000283C
:101D400005D1D4E901010022FFF7ECFD286070BD48
:101D50004C041000E00F2000FFFFFFFFFFFFFFFF1C
:101D6000FFFFFFFFFFFFFFFFFFFFFFFFFFFFFFFF83
:101D7000FFFFFFFFFFFFFFFFFFFFFFFFFFFFFFFF73
:101D8000FFFFFFFFFFFFFFFFFFFFFFFFFFFFFFFF63
:101D9000FFFFFFFFFFFFFFFFFFFFFFFFFFFFFFFF53
:101FF000FFF7D6BBFFFFFFFF6416FF1F04080000BA
:10200000FC1F00101D00FF1FE100FF1FE300FF1F6A
:10201000E500FF1FE700FF1FE900FF1FDFF8184082
:10202000DFF81050266805EA06062660DFF800F0A3
:102030003D00FF1FFFBFFFFFC0C30F40DFF8702050
:10204000DFF88430DFF88850DFF88860D3F800408C
:10205000AC4218BFB44201D1DFF8704014604FF4B5
:10206000001240F245134FF0070414611360DFF8CB
:102070004430D3F80020DFF84040D4F80040DFF8C7
:102080003C50D5F80050AC4203D0DFF83420D2F8F1
:102090000020A2F11F029546DFF8282010470168B2
:1020A0008D464168084701688D4641680847000031
:1020B00084C10F403C041000D0051000DC00FF1F5D
:1020C000D800FF1F6F04FF1FFC020000214365873B
:1020D0006587214378563412FF1F0010CDAB56346C
:1020E0007047FEE7FEE7FEE7FEE770477047704780
:1020F0007047FFFF2DE9FC41FE4EDFF8FC83FF4FE8
:10210000FF4D0024FE4801AA4621943801F0ABF8A7
:102110000028F7D17A2155F82020401C117005289D
:10212000F9DB0F23F64A00930523A2F194000199ED
:1021300001F0D7F80028E5D029680978522905D0A0
:10214000542903D0472901D04D2901D1012207E0AC
:102150000022572901D0432901D1012400E00024A5
:10216000D8F808103368994206D03B68994203D0EA
:10217000E44B1B68994201D1012A07D03268914291
:1021800002D03A68914209D1012C07D10F221320C5
:10219000696801F0F4F801F033F8B3E700F046FFA6
:1021A000B0E72DE9F04101F0AAFAD748046801F040
:1021B0009EFAD64FD64ED74D4FF00208C6F804808F
:1021C000A00301D5022000E0082079690142FCD17A
:1021D00079690142FCD00121716079690142FCD129
:1021E00079690142FCD000207060B068D02100F015
:1021F000C8FA0022032100F0C9FFA00310D5286807
:1022000020F007002860286840F084002860686893
:1022100020F007006860686840F0840068600FE0A4
:10222000A86820F00700A860A86840F08100A860B6
:10223000E86820F00700E860E86840F08100E860A6
:10224000B54800F0DDFF00F0FDFFAD48002246215B
:10225000943801F008F8AA48AF49943801F032F8F0
:10226000002823D0A00310D5286820F0070028609C
:10227000686820F007006860286840F080002860E7
:10228000686840F08000686098E7A86820F0070060
:10229000A860E86820F00700E860A86840F08000C7
:1022A000A860E86840F08000E86087E7BDE8F0815A
:1022B0009A48002140F8441C4FF0010140F84C1CA2
:1022C000816550F88C1C48F20C0241EA020140F88A
:1022D0008C1CC16F41F00C01C167C16F21F00C0172
:1022E000C1678F494FF085008862704710B5FFF7CE
:1022F000DFFF8C48804C00680068A060012000F07F
:10230000D7FFFFF74EFF884800F07AFF7C48002295
:102310004621943800F0A7FF42F6E0602060824832
:1023200000F06EFF01207649606075484E3901600B
:102330000F3141600F3181600F31C1600F31016198
:10234000BDE81040D6E62DE9F04101F0D8F9774814
:10235000784D06687648012107682964046801F011
:10236000C6F90021084654F82020401C11440828D2
:10237000F9DB31B9C5F888613846BDE8F041FFF7AF
:102380008EBE0020286491E710B50021614B8122A8
:1023900003EB8104C4F88021491C0829F8D320B933
:1023A000C3F80022C3F8042214E0082103EB8104DF
:1023B000C4F88021491C1029F8D3012802D1C3F8A0
:1023C000042207E0102003EB8001C1F88021401CAB
:1023D0002028F8D3022003EB8001C1F80022401C22
:1023E0002028F8D310BD2DE9FF414B486F4610302F
:1023F0001EC887E81E0001F082F94C4805684E4867
:10240000D0F800804D48066801F071F9494CD4F8C5
:10241000A001800712D4D4F8E40100F0030057F8BB
:102420002000032802D1FFF761FF07E044490E6056
:10243000C1F80002C1F82002FFF7A6FFC4F88851D6
:10244000404604B0BDE8F041FFF729BE10B501F0E9
:1024500056F92D48046801F04AF9200702D1BDE879
:102460001040C0E7FFF76FFFBDE810403EE72DE9E1
:10247000F04101F03CF92B481F4D00681D490068F0
:10248000A86009681D4E2B4C88420CD031688842E8
:1024900009D01C490968884205D0D4F8C00340F42B
:1024A0008040C4F8C00301F02AF9D4F8C0031649EB
:1024B00000F48040096821F48041014341F4004068
:1024C000C4F8C0031F4820490068884202D001F0C8
:1024D0000EF9FEE71D484FF0FF310068C01FC0E94C
:1024E000001154F8C40F40F4805020601848194976
:1024F000006831E0CC00FF1F18010010D000FF1F62
:10250000BC010010D400FF1F30041000008009201F
:102510000080004000C002403016FF1F50C10F4035
:1025200000C00040C800FF1F5416FF1FB405100074
:102530005804100000C00F40B8051000F40510004A
:1025400000C00920D0051000CDAB56343C0410006B
:10255000D80510000040034048632648006820600A
:102560002548006820F48030C4F8C400234800687F
:10257000C4F8E00022480068C4F838012148006827
:10258000C4F8EC0020480068C4F81801002060641A
:102590001E48A4F1C4040168491C03D01C4900680A
:1025A000096801601B48006820601B4804681B48DC
:1025B000076801F09CF81A48844204D13846BDE807
:1025C000F041FFF770BD4FF08040006840070DD428
:1025D0001448406D400509D4A8683168884205D088
:1025E0001149884202D0BDE8F0417FE6BDE8F041E4
:1025F0002CE70000B0051000B4051000BC05100069
:10260000E0051000E4051000F0051000E8051000DA
:10261000EC051000D4051000C8051000CC05100012
:1026200020060820008009207073694E491E08406A
:1026300000D0012070472DE9F0470E4615461F4691
:10264000002430B1314600F082FE10B10C20BDE80C
:10265000F087692D01D10020F9E704213068FFF7E8
:10266000E5FF4FF4807960B1642D01D1062467E065
:102670000D24672D01D1022462E0682D11D10324BD
:102680005EE0652D0FD1306848450CD0B0F5007F75
:1026900009D0B0F5806F06D0B0F5805F03D006207A
:1026A000D5E7002C4CD101F02AF83B493068096885
:1026B000884205D33949C2190968491C8A4213D98D
:1026C00037490968884205D33649C2190968491C47
:1026D0008A4209D934490968884207D33349C21963
:1026E0000968491C8A4201D8012100E0002188467E
:1026F0002F490968884207D3C1192E480068401C39
:10270000814201D8012700E0002700F0F0FF662D8C
:1027100004D158EA070013D10E2411E0672D04D12B
:10272000B8F1000F0CD104240AE0682D08D10FB9CC
:10273000052405E049463068FFF778FF00289ED160
:10274000204684E72DE9F04107460C4615460E2643
:1027500000F0D5FF1048006884420CD30F4861197F
:102760000068401C814206D8134879190068401C53
:10277000814200D8002600F0BAFF3046BDE8F08163
:1027800070470246B0FBF1F001FB1022B2EB510F93
:1027900000D9401C70470000380410003C041000B1
:1027A0006004100064041000680410006C04100041
:1027B000580410005C041000F805100030B575498D
:1027C00000228A6040F27712B0FBF2F24A604A6857
:1027D0004FF47A72B0FBF2F0C0EB0013B3FBF2F4EB
:1027E00000EBC003C3EB8013B3FBF2F3C0EBC000FC
:1027F00000EB8000B0FBF2F04FF4807504F10104AF
:1028000005EB03234FF4803243EA040302EB00405C
:1028100040EA0300086030BD4FF40013C3F8842081
:1028200031B908B9082000E00320C3F880007047E0
:10283000022904D108B90A20F7E70520F5E708B90D
:102840000920F2E70420F0E752494FF0A052103976
:10285000C1F8682F4860062041F88009D1F8E00FE0
:10286000C000FBD5704770B50D46044616460421DE
:10287000FFF7DCFE58B904213046FFF7D7FE30B928
:1028800004212846FFF7D2FE08B9022070BD0221BC
:102890002046FFF7CBFE58B902213046FFF7C6FEAF
:1028A00030B902212846FFF7C1FE08B9012070BDEA
:1028B000002070BD2DE9F04705460C461646FFF78F
:1028C000D2FF074601462A460120FFF7A5FFA94689
:1028D0004FF4001823E037B914F8010BC8F888004A
:1028E0006D1C761E0DE0022F05D102CCC8F88810B1
:1028F0002D1D361F05E034F8021BC8F88810AD1CEA
:10290000B61E40212846FFF791FE40B94846FFF722
:102910009BFFA9462A4639460120FFF77DFF002E7E
:10292000D9D140212846FFF781FE10B14846FFF774
:102930008BFF002008F1800108604861BDE8F08746
:102940002DE9F04107460C461546FFF78CFF064679
:1029500001463A460020FFF75FFF4FF4001010E0F9
:102960002EB9D0F88C1004F8011B6D1E09E0D0F8C8
:102970008C10022E02D102C42D1F02E024F8021B8B
:10298000AD1E002DECD1002140F8801F4161BDE853
:10299000F0810000900020007FB5FF4D6422A86800
:1029A0006946009BFFF747FE10F0FF041ED16868E0
:1029B000672203A9009BFFF73EFE10F0FF0415D12C
:1029C0000023692202A9E868FFF735FEC4B2029825
:1029D000082803D0102801D00C2407E034B90023C4
:1029E000692201A92869FFF726FEC4B20F222046FA
:1029F000296800F0C4FC00F003FCE848002C1ED15C
:102A000000991AE0019929B1416B0904FCD5416B89
:102A10000904FCD402990829416B4FEA1142039939
:102A200005D101F8012B03910099491E04E021F81A
:102A3000022B03910099891E00910029E2D17FBDEC
:102A400070B5D54CD64E00236922311D6068FFF762
:102A5000F2FD06F114052860B8B900236922A5F13A
:102A60000C01A068FFF7E7FD286070B90023692218
:102A7000A5F10801E068FFF7DEFD286028B93820DD
:102A800030602946304601F0B3FA61680F222868A9
:102A900000F075FC00F0B4FB28680A2808D16168D2
:102AA0000F22686800F06BFCBDE8704000F0A8BB26
:102AB00070BD70B5B84CBA4E00236922311D6068F4
:102AC000FFF7B9FD06F11405286070B900236922EB
:102AD000A5F10C01A068FFF7AEFD286028B93520EC
:102AE00030602946304601F083FA61680F22286879
:102AF00000F045FC00F084FB2868082820D1A94894
:102B0000A94900680968884207D0A849096888422D
:102B100003D0A7490968884202D100206860A860F4
:102B200061680F22686800F02AFC00F069FB6168A8
:102B30000F22A86800F023FCBDE8704000F060BBE5
:102B400070BD2DE9F0479B48934902684868012A07
:102B500003D10F220146104657E0914C88460023CE
:102B60006922211DFFF767FD04F11405286040B9B3
:102B70000023692204F10801D8F80800FFF75BFD83
:102B80002860DFF820928849D9F8000009681327E7
:102B9000894E884203D085490968884209D100F0EE
:102BA000AEFD606818B9A068316888420AD02F600D
:102BB00008E07F490968884206D100F0A0FD6068FE
:102BC0000028F0D000F093FD286848B93420206038
:102BD0007A4873490068E0601431714801F008FADE
:102BE00000F08DFD606850B9A0683168884206D158
:102BF00000F07DFD724800680168C9F8001000F01F
:102C000076FDD8F804100F22286800F0B8FBBDE864
:102C1000F04700F0F5BA70B566485F4E016870681D
:102C2000012903D10F22014610463AE05C4D0023F2
:102C30006922291DFFF7FFFC05F11404206080B90B
:102C400000236922A4F10C01B068FFF7F4FC2060B6
:102C500038B900236922A4F10801F068FFF7EBFC02
:102C60002060504852490068096888420AD100F043
:102C700046FD544968680968884201D213202060E3
:102C800000F035FD206848B9332028604B4844499E
:102C9000006828611431424801F0AAF971680F22D6
:102CA000206800F06CFBBDE8704000F0A9BA70B578
:102CB000394C3B4E00236922311D6068FFF7BBFC95
:102CC00006F11405286070B900236922A5F10C01F2
:102CD000A068FFF7B0FC286028B932203060294690
:102CE000304601F085F961680F22286800F047FB43
:102CF000BDE8704000F084BA38B5274D0023692242
:102D000069466868FFF797FCC4B20F2220466968DD
:102D100000F035FB00F074FA002C04D1009800B1EB
:102D2000012000F0C5FA38BD7CB51B4D0023692297
:102D300001A96868FFF77FFC002369226946A8683B
:102D4000FFF779FC10F0FF0419D10198B0F5165F78
:102D50000FD0B0F5964F0CD0B0F5164F09D0B0F5A6
:102D6000614F06D0B0F5E13F03D0B0F5613F00D030
:102D700011240098012802D0022800D012240F222A
:102D80002046696800F0FBFA00F03AFA002C1FD1E7
:102D90000A48026818E00000BC0100100080092009
:102DA000D001001020010010CC00FF1FD000FF1F39
:102DB000D400FF1F1C010010400410001801001077
:102DC000C800FF1F20051000DDE9001000F0DEF94B
:102DD0007CBD38B5E14C0023692269466068FFF785
:102DE0002AFC10F0FF0009D10099A1F5B4425A3A2B
:102DF00003D1DB4A0021116000E010200F2261683E
:102E000000F0BDFA00F0FCF938BD38B5D448D34D18
:102E1000006840B90024D348696800F053FA20B92B
:102E2000D14800900AE00F240FE000236622694693
:102E30006868FFF700FC10F0FF0406D1A86800786E
:102E400054280ED0412800D00C240F222046696857
:102E500000F095FA00F0D4F9002C01D100988047D9
:102E600038BD009840F001000090EEE72DE9FC47E6
:102E7000BA4D002364226946A868FFF7DCFB10F016
:102E8000FF0406D16868662201A9009BFFF7D3FB07
:102E9000C4B20F222046296800F071FA00F0B0F9A0
:102EA000002C47D1DFF8C4A2DDE900870026DAF85C
:102EB000409034460121CAF84010DAF8400032E070
:102EC0002D2D00DD2D252A46A949019800F0DAFABA
:102ED0000644A74800F094F940BB0198641C2844BC
:102EE00001900098401B0090142C00D0D8B90F22FC
:102EF0009F49304600F043FA00F082F90022462153
:102F00009B4800F0B0F910F0FF0F0FD19549984899
:102F1000C91E00F0D7F910B9DDE9008701E0CDE95D
:102F2000008700242646009D002DC9DCCAF8409089
:102F3000DAF84000BDE8FC87F0B585B0874D642223
:102F4000A86802A9029BFFF776FB10F0FF040DD1E1
:102F50006868672204A9029BFFF76DFBC4B2042CCA
:102F600001D10E2402E0022C00D10D2400F0C7FB99
:102F70008048814900680968884207D17F480499E0
:102F8000006800F50070814200D2132400F0AFFB0E
:102F90000F222046296800F0F2F900F031F9002CE8
:102FA00042D12546029F049E3BE06A464621704876
:102FB00000F059F9002837D1009868B16D1C01AABA
:102FC0006B48049900F0FDF9044404990198014408
:102FD00004910299081A0290142D01D0029800BBA6
:102FE000002000906A464621614800F03CF90099B3
:102FF000C0B20029F6D0002816D103A95C4800F021
:10300000A6F90398844204D15648029FC01E049E2C
:1030100003E054480297401D049600F0F1F80025A3
:103020002C4602980028C0DC05B0F0BD70B54B4DB1
:1030300028680078413817287CD2DFE800F01B1898
:103040007C8B7F8B128B821E5A8B852F8B788B0FFC
:103050008B88158B0C00BDE870406DE7BDE87040B3
:1030600004E7BDE87040D0E6BDE87040B1E6BDE8D9
:10307000704059E6BDE870403EE600F040FB404835
:10308000046800F034FB0F220020696800F077F933
:1030900000F0B6F80F222046696842E000F02FFBEE
:1030A00038480F2204680020696800F068F900F0D1
:1030B000A7F869680F22206800F061F900F0A0F815
:1030C00069680F22606800F05AF900F099F86968A1
:1030D0000F22A06800F053F900F092F869680F22FF
:1030E000E06800F04CF900F08BF8BDE8704000F0AB
:1030F000FEBA00F004FB2448046800F0F8FA0F223E
:103100000020696800F03BF900F07AF80F22E0B285
:10311000696800F034F900F073F8C4F307200F2257
:10312000696800F02CF9BDE8704000F069B8BDE8AE
:103130007040BCE50EE0BDE870406CE5BDE8704055
:10314000FFE4BDE87040B4E4BDE8704078E4BDE859
:10315000704021E40F2201206968E2E7BC01001001
:103160001C0100105716FF1F7004100000C00F4014
:103170002801001020010010D400FF1F38041000A7
:1031800030041000DC0510003404100010B50C46AB
:1031900062B11A21414310464FF47A725043FFF74F
:1031A000F0FA012C01D1032400E0072442494A69C6
:1031B0005206FCD58022CA600860001248600020D8
:1031C000C86001208860CC6010BD3B494A69920606
:1031D000FCD50860704738494869C007FCD00868CA
:1031E000364AC0B21268002A03D04A699206FCD55A
:1031F0000860704700B5FFF7EEFF1128FBD100BD56
:1032000010B52D4C030015D011E05B1CFFF7DDFF5E
:103210006069C0070BD02068C0B21B2801D1012013
:1032200010BD132803D1FFF7D6FF1128FBD1187862
:103230000028EAD10D20FFF7C8FF0A20FFF7C5FFDD
:10324000002010BD1C484169C90702D00068012058
:103250007047002070471A488068800800E0401ED0
:103260000028FCD1704770B50546164600234C1E59
:10327000FFF7B1FF1B2801D1012070BD0D2803D03D
:103280000A2801D0A34210D10020E85406B13360CF
:10329000FFF7E1FF0948006828B1FFF7D3FF10B13D
:1032A0000A20FFF792FF002070BDE8545B1CDFE7A7
:1032B000024908607047000000C00040240100106F
:1032C0000080004010B5002203E00BB9002010BDC3
:1032D000521C835C8C5CA342F7D0805C895C401AF2
:1032E00010BD2DE9F0430646894600203178079F3E
:1032F0000446054609B9BDE8F0830021BF1E22E05F
:1033000000F1010C9C4520DC16F801C0BCF1200F37
:1033100008D0BD4206DA52F8208008F804C0641CC8
:103320006D1C0FE006EB010C9CF801C0BCF1200FF6
:1033300001D1BD4206D1002552F820C0401C0CF836
:1033400004502C46491C4945DADD401CD3E770B5D2
:10335000002422466FF02F0509E0A3F13006092E64
:103360000BD804EB840405EB44041C44521C835C1E
:10337000002BF2D100200C6070BD012070BD10B593
:103380000023521E8B540A2478B93020521E8854D0
:103390000EE0B0FBF4F304FB1300521E092801D821
:1033A000303000E03730885418460AB10028F0D198
:1033B000881810BD602801D1002070472038C0B2A5
:1033C0007047F0B50346002635460078FFF7F2FF58
:1033D0000446401E2C284CD85B1C48E0032C26DBFE
:1033E0001878FFF7E7FF87005878FFF7E3FF47EA11
:1033F000101008705878FFF7DDFF07019878FFF785
:10340000D9FF47EA90004870D878FFF7D3FF074606
:103410009878FFF7CFFF47EA8010887008784F78D8
:10342000ED1C38448F78C91C3E4406441DE0012C35
:103430000CDB1878FFF7BEFF87005878FFF7BAFF5C
:1034400047EA10100870C0B26D1C0644022C0CDB59
:103450005878FFF7AFFF07019878FFF7ABFF47EA0F
:1034600090004870C0B26D1C06441B1DE41E002C69
:10347000B4DC30461560F0BD08B9602070472030DC
:10348000C0B2704770B503460024D0B2FFF7F4FF16
:1034900001F8010B2EE0032A05DB5D789E78187891
:1034A0003444284405E0022A05D15D7818782E4678
:1034B0002844044402E01D782E462C4418788008E5
:1034C000FFF7DAFF087018788007800E00EB151000
:1034D000FFF7D2FF48702807800E00EB9610FFF729
:1034E000CBFF887006F03F00FFF7C6FFC870091DCC
:1034F000DB1CD21E002ACEDC00200870204670BDE6
:10350000044A516C21F01803102100B908210B4323
:103510005364704700C002402DE9F0410446066A3A
:10352000407CA57C0F4640283ED1A5F1100007281D
:1035300037D8522084F835000F2084F83100102D40
:1035400003D1002084F8320007E0142D05D3D220E7
:1035500084F83700112084F833001C20162D01D385
:1035600044F21C0060834FF4FE7001D344F2FC501F
:103570002083691E204609F0D9FBF80503D544F2E3
:1035800001410B4A05E00B4A44F20501162D00D318
:10359000094E0A48334602432046BDE8F04109F08F
:1035A000D0BB0748BDE8F0810548401CFAE70000A1
:1035B000000011BB000013EB00808832FF3FC00009
:1035C00007000200202A04DB0023203A00FA02F15F
:1035D00006E000FA02F39140C2F12002D04001431C
:1035E0001846704740EA01039B070AD102E008C968
:1035F000121F08C0042AFAD203E011F8013B00F8B8
:10360000013B521EF9D27047D2B201E000F8012B03
:10361000491EFBD270470022F6E710B50446084663
:10362000114602462046FFF7EFFF204610BD7047C7
:1036300053796E6368726F6E697A6564000000008A
:103640000100000002000000030000000000000074
:103650005A5A00004F4B007445735400524553456D
:103660004E4400FF0CBFFF1FFFFFFFFFFFFFFFFFE8
:10367000FFFFFFFFFFFFFFFF44BEFF1FFFFFFFFF36
:10368000FFFFFFFF2DE9F047D1E90275D1F8048073
:1036900081460C4616462A4639464046FFF752F800
:1036A0003060002812D1002D10D02069FFF786F875
:1036B000B9F1000F2A463946404603D1BDE8F0472C
:1036C000FFF73EB9BDE8F047FFF7F4B8BDE8F08773
:1036D000324900200864FEF709BE0A380521B0FB14
:1036E000F1F0401C00E0401E0028FCD170474FF470
:1036F0000010016821F0400101601020EDE74FF457
:103700000010016841F0400101601020E5E72DE95B
:10371000F0410D460446002300F10C0164221846D6
:10372000FEF789FF286000282AD16622211DE36860
:10373000FEF781FF2860002822D1662204F10801EB
:10374000E368FEF778FF2860002819D1DFF84CC045
:10375000D4E902216068DCF840700123CCF84030E5
:10376000DCF8403011E013680668B3420AD00A2141
:1037700029606168401A6860CCF84070DCF840004D
:10378000BDE8F081121D001D091F0029EBD1CCF806
:103790004070DCF8400000202860F1E700C00F40D6
:1037A00070B54FF4001634680A46356940F20511C9
:1037B00031600721316103680021323B0D2B48D273
:1037C000DFE803F0070B0F131B35173C2047473F7B
:1037D0004200114600F0ABFA3DE0114600F0EEF970
:1037E00039E0114600F029F935E0114600F054F8AF
:1037F00031E01146FFF78BFF2DE01160FFF77FFFEF
:10380000164818E01160FFF77AFF1548016809684B
:10381000516001684968916001688968D1600068F9
:10382000C0681061FFF763FFFFF761FF13E01160ED
:10383000FFF765FF0B4800685060F3E7FFF748FFAC
:1038400009E00146012001E001460020FFF71AFFD0
:1038500001E0012010603460356170BD300410005B
:10386000DC0510003404100000B502460B46FFF7DB
:1038700046FFFF4801688A4201D88B4202D9FFF710
:1038800036FF03E0FFF733FF9A4201D9072000BD5E
:10389000FFF72DFF002000BDF0B50D4604468168FE
:1038A00000264068FFF7E0FF2860002822D1FFF7DC
:1038B00026FFF048616850F82120EF49A0681746BC
:1038C00051F82030FFF713FFEC486168A1B9066C8E
:1038D00001210164016C0FE01168491C0BD0082123
:1038E0002960D11B69601168A9606168002901D154
:1038F0000664006CF0BD121D9A42EDD3616809B9EF
:103900000664006C00202860F0BD10B5029C0160C8
:1039100022B1136010681842FCD110BD2068400726
:10392000FCD010BD2DE9F74F92464FF4001B002745
:10393000DBF8042082B0B9460521914355D10446F5
:1039400031E0224600210120FFF73CFE074341EA17
:103950000909FFF7D4FEC748CA4950F82450C8489F
:1039600005F5801500684FF00108884205D1102C3C
:1039700001D0112C01D14FF00808FFF7B8FE002646
:10398000DC460DE0C5F800A0002360461A4648F268
:103990008711CDF800C0FFF7B8FF05F58055761CFC
:1039A0004645EFD3641C03988442CAD9FFF7A7FEAB
:1039B000B5480068C01FBAF1000F06D1D0E9003247
:1039C000BB4322EA0902C0E900321AF1010106D123
:1039D000D0E900213A4341EA0901C0E90021FFF79B
:1039E00086FE002005B0BDE8F08F0B20FAE72DE938
:1039F000F04100250F462E46044607E022460021EE
:103A00000120FFF7DFFD05430E43641CBC42F5D9DE
:103A1000FFF775FE9C480068C01FD0E900472C40A6
:103A20003740FFF764FE002387EA030184EA0300BE
:103A3000084300D00920BDE8F0812DE9F84F8A46FF
:103A4000044681684068FFF70FFFCAF800000028AD
:103A50007ED1D4E90101FFF7CAFFCAF800000028AF
:103A600076D1FFF74CFE8949E06809684FF4001BE6
:103A7000B0FBF1F0CBF81C00854AE06812684FF00B
:103A80000109504309EB502040F40040CBF80800F6
:103A9000D4E9015085422CD027E0FFF730FE75486D
:103AA000784950F82560764806F5801600684FF092
:103AB0000108884203D1102D01D14FF00808FFF70B
:103AC00016FE0027DC460DE0C6F800900023604695
:103AD0001A4648F28511CDF800C0FFF716FF06F52B
:103AE00080567F1C4745EFD36D1CA068401EA8423E
:103AF000D3D2FFF704FE5F49A068624A51F8205014
:103B00005F490027096805F58015914204D1102806
:103B100001D0112800D10727FFF7E9FDCC46002688
:103B2000D84648F285190CE0C5F800C0002340468D
:103B30001A464946CDF80080FFF7E7FE05F58055A7
:103B4000761CBE42F0D3C5F800C00720454600E011
:103B500014E0C8F8E80F4F4B009300231A4641F2D7
:103B600081114046FFF7D1FED4E901014FF0FF3249
:103B7000FFF7D8FECAF800000020E861BDE8F88F22
:103B800030B5012508E010C910C0AC0703D100E032
:103B9000641C9442FCD36D1C9D42F4D930BD00B529
:103BA0004FF40012536805229A4301D00B2000BD48
:103BB00040230422FFF7E4FF002000BD2DE9FF5F52
:103BC000804640680190D8F808000290D8F80C00B0
:103BD0000D4600230390652203A91846FEF72BFD2E
:103BE000286000286FD1682201A9039BFEF723FDFE
:103BF0002860002879D1672202A9039BFEF71BFDEC
:103C00002860002871D10198002700F580100190EC
:103C1000FFF775FD00241848154912E050F82430CC
:103C2000D8F804209A420BD21146D8F80C2003F1A0
:103C300001001144814201D8274605E0671C03E0DA
:103C4000641C0A689442E9D9FFF751FD39462046C1
:103C5000FFF7CDFE2860002847D1FFF750FD0B4944
:103C6000D8F8100009684FF40016B0FBF1F013E02B
:103C700040041000900410002005100000C00F4008
:103C80004404100032334E4C3C0410005404100025
:103C900050041000E00F2000F0612D49D8F810000A
:103CA00009684843012101EB502040F40048FFF728
:103CB0001EFD4FF000094FF0070CDFF898A041F20D
:103CC000831B03982BE010E0002330461A4640F295
:103CD00007110096FFF719FEDDE90101FFF75FFF0D
:103CE00028B10B202860C6F81C90BDE8FF9F304625
:103CF000C6F8E8CFC6F8088000231A465946CDF822
:103D000000A0FFF702FE019800F580700190029874
:103D100000F5807002900398A0F580700390002851
:103D2000D2D1421E39462046FFF7FCFDDBE770B5D5
:103D30000D46044681684068FFF796FD286000281C
:103D400005D1D4E901010022FFF7ECFD286070BD28
:103D50004C041000E00F2000FFFFFFFFFFFFFFFFFC
:103D6000FFFFFFFFFFFFFFFFFFFFFFFFFFFFFFFF63
:103D7000FFFFFFFFFFFFFFFFFFFFFFFFFFFFFFFF53
:103D8000FFFFFFFFFFFFFFFFFFFFFFFFFFFFFFFF43
:103D9000FFFFFFFFFFFFFFFFFFFFFFFFFFFFFFFF33
:103FF000FFF7D6BBFFFFFFFF6416FF1F040800009A
:10400000FC1F00101D00FF1FE100FF1FE300FF1F4A
:10401000E500FF1FE700FF1FE900FF1FDFF8184062
:10402000DFF81050266805EA06062660DFF800F083
:104030003D00FF1FFFBFFFFFC0C30F40DFF8702030
:10404000DFF88430DFF88850DFF88860D3F800406C
:10405000AC4218BFB44201D1DFF8704014604FF495
:10406000001240F245134FF0070414611360DFF8AB
:104070004430D3F80020DFF84040D4F80040DFF8A7
:104080003C50D5F80050AC4203D0DFF83420D2F8D1
:104090000020A2F11F029546DFF828201047016892
:1040A0008D464168084701688D4641680847000011
:1040B00084C10F403C041000D0051000DC00FF1F3D
:1040C000D800FF1F6F04FF1FFC020000214365871B
:1040D0006587214378563412FF1F0010CDAB56344C
:1040E0007047FEE7FEE7FEE7FEE770477047704760
:1040F0007047FFFF2DE9FC41FE4EDFF8FC83FF4FC8
:10410000FF4D0024FE4801AA4621943801F0ABF887
:104110000028F7D17A2155F82020401C117005287D
:10412000F9DB0F23F64A00930523A2F194000199CD
:1041300001F0D7F80028E5D029680978522905D080
:10414000542903D0472901D04D2901D1012207E08C
:104150000022572901D0432901D1012400E0002485
:10416000D8F808103368994206D03B68994203D0CA
:10417000E44B1B68994201D1012A07D03268914271
:1041800002D03A68914209D1012C07D10F221320A5
:10419000696801F0F4F801F033F8B3E700F046FF86
:1041A000B0E72DE9F04101F0AAFAD748046801F020
:1041B0009EFAD64FD64ED74D4FF00208C6F804806F
:1041C000A00301D5022000E0082079690142FCD15A
:1041D00079690142FCD00121716079690142FCD109
:1041E00079690142FCD000207060B068D02100F0F5
:1041F000C8FA0022032100F0C9FFA00310D52868E7
:1042000020F007002860286840F084002860686873
:1042100020F007006860686840F0840068600FE084
:10422000A86820F00700A860A86840F08100A86096
:10423000E86820F00700E860E86840F08100E86086
:10424000B54800F0DDFF00F0FDFFAD48002246213B
:10425000943801F008F8AA48AF49943801F032F8D0
:10426000002823D0A00310D5286820F0070028607C
:10427000686820F007006860286840F080002860C7
:10428000686840F08000686098E7A86820F0070040
:10429000A860E86820F00700E860A86840F08000A7
:1042A000A860E86840F08000E86087E7BDE8F0813A
:1042B0009A48002140F8441C4FF0010140F84C1C82
:1042C000816550F88C1C48F20C0241EA020140F86A
:1042D0008C1CC16F41F00C01C167C16F21F00C0152
:1042E000C1678F494FF085008862704710B5FFF7AE
:1042F000DFFF8C48804C00680068A060012000F05F
:10430000D7FFFFF74EFF884800F07AFF7C48002275
:104310004621943800F0A7FF42F6E0602060824812
:1043200000F06EFF01207649606075484E390160EB
:104330000F3141600F3181600F31C1600F31016178
:10434000BDE81040D6E62DE9F04101F0D8F97748F4
:10435000784D06687648012107682964046801F0F1
:10436000C6F90021084654F82020401C11440828B2
:10437000F9DB31B9C5F888613846BDE8F041FFF78F
:104380008EBE0020286491E710B50021614B812288
:1043900003EB8104C4F88021491C0829F8D320B913
:1043A000C3F80022C3F8042214E0082103EB8104BF
:1043B000C4F88021491C1029F8D3012802D1C3F880
:1043C000042207E0102003EB8001C1F88021401C8B
:1043D0002028F8D3022003EB8001C1F80022401C02
:1043E0002028F8D310BD2DE9FF414B486F4610300F
:1043F0001EC887E81E0001F082F94C4805684E4847
:10440000D0F800804D48066801F071F9494CD4F8A5
:10441000A001800712D4D4F8E40100F0030057F89B
:104420002000032802D1FFF761FF07E044490E6036
:10443000C1F80002C1F82002FFF7A6FFC4F88851B6
:10444000404604B0BDE8F041FFF729BE10B501F0C9
:1044500056F92D48046801F04AF9200702D1BDE859
:104460001040C0E7FFF76FFFBDE810403EE72DE9C1
:10447000F04101F03CF92B481F4D00681D490068D0
:10448000A86009681D4E2B4C88420CD031688842C8
:1044900009D01C490968884205D0D4F8C00340F40B
:1044A0008040C4F8C00301F02AF9D4F8C0031649CB
:1044B00000F48040096821F48041014341F4004048
:1044C000C4F8C0031F4820490068884202D001F0A8
:1044D0000EF9FEE71D484FF0FF310068C01FC0E92C
:1044E000001154F8C40F40F4805020601848194956
:1044F000006831E0CC00FF1F18010010D000FF1F42
:10450000BC010010D400FF1F3004100000800920FF
:104510000080004000C002403016FF1F50C10F4015
:1045200000C00040C800FF1F5416FF1FB405100054
:104530005804100000C00F40B8051000F40510002A
:1045400000C00920D0051000CDAB56343C0410004B
:10455000D8051000004003404863264800682060EA
:104560002548006820F48030C4F8C400234800685F
:10457000C4F8E00022480068C4F838012148006807
:10458000C4F8EC0020480068C4F8180100206064FA
:104590001E48A4F1C4040168491C03D01C490068EA
:1045A000096801601B48006820601B4804681B48BC
:1045B000076801F09CF81A48844204D13846BDE8E7
:1045C000F041FFF770BD4FF08040006840070DD408
:1045D0001448406D400509D4A8683168884205D068
:1045E0001149884202D0BDE8F0417FE6BDE8F041C4
:1045F0002CE70000B0051000B4051000BC05100049
:10460000E0051000E4051000F0051000E8051000BA
:10461000EC051000D4051000C8051000CC051000F2
:1046200020060820008009207073694E491E08404A
:1046300000D0012070472DE9F0470E4615461F4671
:10464000002430B1314600F082FE10B10C20BDE8EC
:10465000F087692D01D10020F9E704213068FFF7C8
:10466000E5FF4FF4807960B1642D01D1062467E045
:104670000D24672D01D1022462E0682D11D103249D
:104680005EE0652D0FD1306848450CD0B0F5007F55
:1046900009D0B0F5806F06D0B0F5805F03D006205A
:1046A000D5E7002C4CD101F02AF83B493068096865
:1046B000884205D33949C2190968491C8A4213D96D
:1046C00037490968884205D33649C2190968491C27
:1046D0008A4209D934490968884207D33349C21943
:1046E0000968491C8A4201D8012100E0002188465E
:1046F0002F490968884207D3C1192E480068401C19
:10470000814201D8012700E0002700F0F0FF662D6C
:1047100004D158EA070013D10E2411E0672D04D10B
:10472000B8F1000F0CD104240AE0682D08D10FB9AC
:10473000052405E049463068FFF778FF00289ED140
:10474000204684E72DE9F04107460C4615460E2623
:1047500000F0D5FF1048006884420CD30F4861195F
:104760000068401C814206D8134879190068401C33
:10477000814200D8002600F0BAFF3046BDE8F08143
:1047800070470246B0FBF1F001FB1022B2EB510F73
:1047900000D9401C70470000380410003C04100091
:1047A0006004100064041000680410006C04100021
:1047B000580410005C041000F805100030B575496D
:1047C00000228A6040F27712B0FBF2F24A604A6837
:1047D0004FF47A72B0FBF2F0C0EB0013B3FBF2F4CB
:1047E00000EBC003C3EB8013B3FBF2F3C0EBC000DC
:1047F00000EB8000B0FBF2F04FF4807504F101048F
:1048000005EB03234FF4803243EA040302EB00403C
:1048100040EA0300086030BD4FF40013C3F8842061
:1048200031B908B9082000E00320C3F880007047C0
:10483000022904D108B90A20F7E70520F5E708B9ED
:104840000920F2E70420F0E752494FF0A052103956
:10485000C1F8682F4860062041F88009D1F8E00FC0
:10486000C000FBD5704770B50D46044616460421BE
:10487000FFF7DCFE58B904213046FFF7D7FE30B908
:1048800004212846FFF7D2FE08B9022070BD02219C
:104890002046FFF7CBFE58B902213046FFF7C6FE8F
:1048A00030B902212846FFF7C1FE08B9012070BDCA
:1048B000002070BD2DE9F04705460C461646FFF76F
:1048C000D2FF074601462A460120FFF7A5FFA94669
:1048D0004FF4001823E037B914F8010BC8F888002A
:1048E0006D1C761E0DE0022F05D102CCC8F8881091
:1048F0002D1D361F05E034F8021BC8F88810AD1CCA
:10490000B61E40212846FFF791FE40B94846FFF702
:104910009BFFA9462A4639460120FFF77DFF002E5E
:10492000D9D140212846FFF781FE10B14846FFF754
:104930008BFF002008F1800108604861BDE8F08726
:104940002DE9F04107460C461546FFF78CFF064659
:1049500001463A460020FFF75FFF4FF4001010E0D9
:104960002EB9D0F88C1004F8011B6D1E09E0D0F8A8
:104970008C10022E02D102C42D1F02E024F8021B6B
:10498000AD1E002DECD1002140F8801F4161BDE833
:10499000F0810000900020007FB5FF4D6422A868E0
:1049A0006946009BFFF747FE10F0FF041ED16868C0
:1049B000672203A9009BFFF73EFE10F0FF0415D10C
:1049C0000023692202A9E868FFF735FEC4B2029805
:1049D000082803D0102801D00C2407E034B90023A4
:1049E000692201A92869FFF726FEC4B20F222046DA
:1049F000296800F0C4FC00F003FCE848002C1ED13C
:104A000000991AE0019929B1416B0904FCD5416B69
:104A10000904FCD402990829416B4FEA1142039919
:104A200005D101F8012B03910099491E04E021F8FA
:104A3000022B03910099891E00910029E2D17FBDCC
:104A400070B5D54CD64E00236922311D6068FFF742
:104A5000F2FD06F114052860B8B900236922A5F11A
:104A60000C01A068FFF7E7FD286070B900236922F8
:104A7000A5F10801E068FFF7DEFD286028B93820BD
:104A800030602946304601F0B3FA61680F22286889
:104A900000F075FC00F0B4FB28680A2808D16168B2
:104AA0000F22686800F06BFCBDE8704000F0A8BB06
:104AB00070BD70B5B84CBA4E00236922311D6068D4
:104AC000FFF7B9FD06F11405286070B900236922CB
:104AD000A5F10C01A068FFF7AEFD286028B93520CC
:104AE00030602946304601F083FA61680F22286859
:104AF00000F045FC00F084FB2868082820D1A94874
:104B0000A94900680968884207D0A849096888420D
:104B100003D0A7490968884202D100206860A860D4
:104B200061680F22686800F02AFC00F069FB616888
:104B30000F22A86800F023FCBDE8704000F060BBC5
:104B400070BD2DE9F0479B48934902684868012AE7
:104B500003D10F220146104657E0914C88460023AE
:104B60006922211DFFF767FD04F11405286040B993
:104B70000023692204F10801D8F80800FFF75BFD63
:104B80002860DFF820928849D9F8000009681327C7
:104B9000894E884203D085490968884209D100F0CE
:104BA000AEFD606818B9A068316888420AD02F60ED
:104BB00008E07F490968884206D100F0A0FD6068DE
:104BC0000028F0D000F093FD286848B93420206018
:104BD0007A4873490068E0601431714801F008FABE
:104BE00000F08DFD606850B9A0683168884206D138
:104BF00000F07DFD724800680168C9F8001000F0FF
:104C000076FDD8F804100F22286800F0B8FBBDE844
:104C1000F04700F0F5BA70B566485F4E01687068FD
:104C2000012903D10F22014610463AE05C4D0023D2
:104C30006922291DFFF7FFFC05F11404206080B9EB
:104C400000236922A4F10C01B068FFF7F4FC206096
:104C500038B900236922A4F10801F068FFF7EBFCE2
:104C60002060504852490068096888420AD100F023
:104C700046FD544968680968884201D213202060C3
:104C800000F035FD206848B9332028604B4844497E
:104C9000006828611431424801F0AAF971680F22B6
:104CA000206800F06CFBBDE8704000F0A9BA70B558
:104CB000394C3B4E00236922311D6068FFF7BBFC75
:104CC00006F11405286070B900236922A5F10C01D2
:104CD000A068FFF7B0FC286028B932203060294670
:104CE000304601F085F961680F22286800F047FB23
:104CF000BDE8704000F084BA38B5274D0023692222
:104D000069466868FFF797FCC4B20F2220466968BD
:104D100000F035FB00F074FA002C04D1009800B1CB
:104D2000012000F0C5FA38BD7CB51B4D0023692277
:104D300001A96868FFF77FFC002369226946A8681B
:104D4000FFF779FC10F0FF0419D10198B0F5165F58
:104D50000FD0B0F5964F0CD0B0F5164F09D0B0F586
:104D6000614F06D0B0F5E13F03D0B0F5613F00D010
:104D700011240098012802D0022800D012240F220A
:104D80002046696800F0FBFA00F03AFA002C1FD1C7
:104D90000A48026818E00000BC01001000800920E9
:104DA000D001001020010010CC00FF1FD000FF1F19
:104DB000D400FF1F1C010010400410001801001057
:104DC000C800FF1F20051000DDE9001000F0DEF92B
:104DD0007CBD38B5E14C0023692269466068FFF765
:104DE0002AFC10F0FF0009D10099A1F5B4425A3A0B
:104DF00003D1DB4A0021116000E010200F2261681E
:104E000000F0BDFA00F0FCF938BD38B5D448D34DF8
:104E1000006840B90024D348696800F053FA20B90B
:104E2000D14800900AE00F240FE000236622694673
:104E30006868FFF700FC10F0FF0406D1A86800784E
:104E400054280ED0412800D00C240F222046696837
:104E500000F095FA00F0D4F9002C01D100988047B9
:104E600038BD009840F001000090EEE72DE9FC47C6
:104E7000BA4D002364226946A868FFF7DCFB10F0F6
:104E8000FF0406D16868662201A9009BFFF7D3FBE7
:104E9000C4B20F222046296800F071FA00F0B0F980
:104EA000002C47D1DFF8C4A2DDE900870026DAF83C
:104EB000409034460121CAF84010DAF8400032E050
:104EC0002D2D00DD2D252A46A949019800F0DAFA9A
:104ED0000644A74800F094F940BB0198641C28449C
:104EE00001900098401B0090142C00D0D8B90F22DC
:104EF0009F49304600F043FA00F082F90022462133
:104F00009B4800F0B0F910F0FF0F0FD19549984879
:104F1000C91E00F0D7F910B9DDE9008701E0CDE93D
:104F2000008700242646009D002DC9DCCAF8409069
:104F3000DAF84000BDE8FC87F0B585B0874D642203
:104F4000A86802A9029BFFF776FB10F0FF040DD1C1
:104F50006868672204A9029BFFF76DFBC4B2042CAA
:104F600001D10E2402E0022C00D10D2400F0C7FB79
:104F70008048814900680968884207D17F480499C0
:104F8000006800F50070814200D2132400F0AFFBEE
:104F90000F222046296800F0F2F900F031F9002CC8
:104FA00042D12546029F049E3BE06A464621704856
:104FB00000F059F9002837D1009868B16D1C01AA9A
:104FC0006B48049900F0FDF90444049901980144E8
:104FD00004910299081A0290142D01D0029800BB86
:104FE000002000906A464621614800F03CF9009993
:104FF000C0B20029F6D0002816D103A95C4800F001
:10500000A6F90398844204D15648029FC01E049E0C
:1050100003E054480297401D049600F0F1F8002583
:105020002C4602980028C0DC05B0F0BD70B54B4D91
:1050300028680078413817287CD2DFE800F01B1878
:105040007C8B7F8B128B821E5A8B852F8B788B0FDC
:105050008B88158B0C00BDE870406DE7BDE8704093
:1050600004E7BDE87040D0E6BDE87040B1E6BDE8B9
:10507000704059E6BDE870403EE600F040FB404815
:10508000046800F034FB0F220020696800F077F913
:1050900000F0B6F80F222046696842E000F02FFBCE
:1050A00038480F2204680020696800F068F900F0B1
:1050B000A7F869680F22206800F061F900F0A0F8F5
:1050C00069680F22606800F05AF900F099F8696881
:1050D0000F22A06800F053F900F092F869680F22DF
:1050E000E06800F04CF900F08BF8BDE8704000F08B
:1050F000FEBA00F004FB2448046800F0F8FA0F221E
:105100000020696800F03BF900F07AF80F22E0B265
:10511000696800F034F900F073F8C4F307200F2237
:10512000696800F02CF9BDE8704000F069B8BDE88E
:105130007040BCE50EE0BDE870406CE5BDE8704035
:10514000FFE4BDE87040B4E4BDE8704078E4BDE839
:10515000704021E40F2201206968E2E7BC010010E1
:105160001C0100105716FF1F7004100000C00F40F4
:105170002801001020010010D400FF1F3804100087
:1051800030041000DC0510003404100010B50C468B
:1051900062B11A21414310464FF47A725043FFF72F
:1051A000F0FA012C01D1032400E0072442494A69A6
:1051B0005206FCD58022CA600860001248600020B8
:1051C000C86001208860CC6010BD3B494A699206E6
:1051D000FCD50860704738494869C007FCD00868AA
:1051E000364AC0B21268002A03D04A699206FCD53A
:1051F0000860704700B5FFF7EEFF1128FBD100BD36
:1052000010B52D4C030015D011E05B1CFFF7DDFF3E
:105210006069C0070BD02068C0B21B2801D10120F3
:1052200010BD132803D1FFF7D6FF1128FBD1187842
:105230000028EAD10D20FFF7C8FF0A20FFF7C5FFBD
:10524000002010BD1C484169C90702D00068012038
:105250007047002070471A488068800800E0401EB0
:105260000028FCD1704770B50546164600234C1E39
:10527000FFF7B1FF1B2801D1012070BD0D2803D01D
:105280000A2801D0A34210D10020E85406B13360AF
:10529000FFF7E1FF0948006828B1FFF7D3FF10B11D
:1052A0000A20FFF792FF002070BDE8545B1CDFE787
:1052B000024908607047000000C00040240100104F
:1052C0000080004010B5002203E00BB9002010BDA3
:1052D000521C835C8C5CA342F7D0805C895C401AD2
:1052E00010BD2DE9F0430646894600203178079F1E
:1052F0000446054609B9BDE8F0830021BF1E22E03F
:1053000000F1010C9C4520DC16F801C0BCF1200F17
:1053100008D0BD4206DA52F8208008F804C0641CA8
:105320006D1C0FE006EB010C9CF801C0BCF1200FD6
:1053300001D1BD4206D1002552F820C0401C0CF816
:1053400004502C46491C4945DADD401CD3E770B5B2
:10535000002422466FF02F0509E0A3F13006092E44
:105360000BD804EB840405EB44041C44521C835CFE
:10537000002BF2D100200C6070BD012070BD10B573
:105380000023521E8B540A2478B93020521E8854B0
:105390000EE0B0FBF4F304FB1300521E092801D801
:1053A000303000E03730885418460AB10028F0D178
:1053B000881810BD602801D1002070472038C0B285
:1053C0007047F0B50346002635460078FFF7F2FF38
:1053D0000446401E2C284CD85B1C48E0032C26DBDE
:1053E0001878FFF7E7FF87005878FFF7E3FF47EAF1
:1053F000101008705878FFF7DDFF07019878FFF765
:10540000D9FF47EA90004870D878FFF7D3FF0746E6
:105410009878FFF7CFFF47EA8010887008784F78B8
:10542000ED1C38448F78C91C3E4406441DE0012C15
:105430000CDB1878FFF7BEFF87005878FFF7BAFF3C
:1054400047EA10100870C0B26D1C0644022C0CDB39
:105450005878FFF7AFFF07019878FFF7ABFF47EAEF
:1054600090004870C0B26D1C06441B1DE41E002C49
:10547000B4DC30461560F0BD08B9602070472030BC
:10548000C0B2704770B503460024D0B2FFF7F4FFF6
:1054900001F8010B2EE0032A05DB5D789E78187871
:1054A0003444284405E0022A05D15D7818782E4658
:1054B0002844044402E01D782E462C4418788008C5
:1054C000FFF7DAFF087018788007800E00EB1510E0
:1054D000FFF7D2FF48702807800E00EB9610FFF709
:1054E000CBFF887006F03F00FFF7C6FFC870091DAC
:1054F000DB1CD21E002ACEDC00200870204670BDC6
:10550000044A516C21F01803102100B908210B4303
:105510005364704700C002402DE9F0410446066A1A
:10552000407CA57C0F4640283ED1A5F110000728FD
:1055300037D8522084F835000F2084F83100102D20
:1055400003D1002084F8320007E0142D05D3D220C7
:1055500084F83700112084F833001C20162D01D365
:1055600044F21C0060834FF4FE7001D344F2FC50FF
:105570002083691E204609F0D9FBF80503D544F2C3
:1055800001410B4A05E00B4A44F20501162D00D3F8
:10559000094E0A48334602432046BDE8F04109F06F
:1055A000D0BB0748BDE8F0810548401CFAE7000081
:1055B000000011BB000013EB00808832FF3FC000E9
:1055C00007000200202A04DB0023203A00FA02F13F
:1055D00006E000FA02F39140C2F12002D0400143FC
:1055E0001846704740EA01039B070AD102E008C948
:1055F000121F08C0042AFAD203E011F8013B00F898
:10560000013B521EF9D27047D2B201E000F8012BE3
:10561000491EFBD270470022F6E710B50446084643
:10562000114602462046FFF7EFFF204610BD7047A7
:1056300053796E6368726F6E697A6564000000006A
:105640000100000002000000030000000000000054
:105650005A5A00004F4B007445735400524553454D
:105660004E4400FF0CBFFF1FFFFFFFFFFFFFFFFFC8
:10567000FFFFFFFFFFFFFFFF44BEFF1FFFFFFFFF16
:10568000FFFFFFFF2DE9F047D1E90275D1F8048053
:1056900081460C4616462A4639464046FFF752F8E0
:1056A0003060002812D1002D10D02069FFF786F855
:1056B000B9F1000F2A463946404603D1BDE8F0470C
:1056C000FFF73EB9BDE8F047FFF7F4B8BDE8F08753
:1056D000324900200864FEF709BE0A380521B0FBF4
:1056E000F1F0401C00E0401E0028FCD170474FF450
:1056F0000010016821F0400101601020EDE74FF437
:105700000010016841F0400101601020E5E72DE93B
:10571000F0410D460446002300F10C0164221846B6
:10572000FEF789FF286000282AD16622211DE36840
:10573000FEF781FF2860002822D1662204F10801CB
:10574000E368FEF778FF2860002819D1DFF84CC025
:10575000D4E902216068DCF840700123CCF84030C5
:10576000DCF8403011E013680668B3420AD00A2121
:1057700029606168401A6860CCF84070DCF840002D
:10578000BDE8F081121D001D091F0029EBD1CCF8E6
:105790004070DCF8400000202860F1E700C00F40B6
:1057A00070B54FF4001634680A46356940F20511A9
:1057B00031600721316103680021323B0D2B48D253
:1057C000DFE803F0070B0F131B35173C2047473F5B
:1057D0004200114600F0ABFA3DE0114600F0EEF950
:1057E00039E0114600F029F935E0114600F054F88F
:1057F00031E01146FFF78BFF2DE01160FFF77FFFCF
:10580000164818E01160FFF77AFF1548016809682B
:10581000516001684968916001688968D1600068D9
:10582000C0681061FFF763FFFFF761FF13E01160CD
:10583000FFF765FF0B4800685060F3E7FFF748FF8C
:1058400009E00146012001E001460020FFF71AFFB0
:1058500001E0012010603460356170BD300410003B
:10586000DC0510003404100000B502460B46FFF7BB
:1058700046FFFF4801688A4201D88B4202D9FFF7F0
:1058800036FF03E0FFF733FF9A4201D9072000BD3E
:10589000FFF72DFF002000BDF0B50D4604468168DE
:1058A00000264068FFF7E0FF2860002822D1FFF7BC
:1058B00026FFF048616850F82120EF49A06817469C
:1058C00051F82030FFF713FFEC486168A1B9066C6E
:1058D00001210164016C0FE01168491C0BD0082103
:1058E0002960D11B69601168A9606168002901D134
:1058F0000664006CF0BD121D9A42EDD3616809B9CF
:105900000664006C00202860F0BD10B5029C0160A8
:1059100022B1136010681842FCD110BD2068400706
:10592000FCD010BD2DE9F74F92464FF4001B002725
:10593000DBF8042082B0B9460521914355D10446D5
:1059400031E0224600210120FFF73CFE074341EAF7
:105950000909FFF7D4FEC748CA4950F82450C8487F
:1059600005F5801500684FF00108884205D1102C1C
:1059700001D0112C01D14FF00808FFF7B8FE002626
:10598000DC460DE0C5F800A0002360461A4648F248
:105990008711CDF800C0FFF7B8FF05F58055761CDC
:1059A0004645EFD3641C03988442CAD9FFF7A7FE8B
:1059B000B5480068C01FBAF1000F06D1D0E9003227
:1059C000BB4322EA0902C0E900321AF1010106D103
:1059D000D0E900213A4341EA0901C0E90021FFF77B
:1059E00086FE002005B0BDE8F08F0B20FAE72DE918
:1059F000F04100250F462E46044607E022460021CE
:105A00000120FFF7DFFD05430E43641CBC42F5D9BE
:105A1000FFF775FE9C480068C01FD0E900472C4086
:105A20003740FFF764FE002387EA030184EA03009E
:105A3000084300D00920BDE8F0812DE9F84F8A46DF
:105A4000044681684068FFF70FFFCAF8000000288D
:105A50007ED1D4E90101FFF7CAFFCAF8000000288F
:105A600076D1FFF74CFE8949E06809684FF4001BC6
:105A7000B0FBF1F0CBF81C00854AE06812684FF0EB
:105A80000109504309EB502040F40040CBF80800D6
:105A9000D4E9015085422CD027E0FFF730FE75484D
:105AA000784950F82560764806F5801600684FF072
:105AB0000108884203D1102D01D14FF00808FFF7EB
:105AC00016FE0027DC460DE0C6F800900023604675
:105AD0001A4648F28511CDF800C0FFF716FF06F50B
:105AE00080567F1C4745EFD36D1CA068401EA8421E
:105AF000D3D2FFF704FE5F49A068624A51F82050F4
:105B00005F490027096805F58015914204D11028E6
:105B100001D0112800D10727FFF7E9FDCC46002668
:105B2000D84648F285190CE0C5F800C0002340466D
:105B30001A464946CDF80080FFF7E7FE05F5805587
:105B4000761CBE42F0D3C5F800C00720454600E0F1
:105B500014E0C8F8E80F4F4B009300231A4641F2B7
:105B600081114046FFF7D1FED4E901014FF0FF3229
:105B7000FFF7D8FECAF800000020E861BDE8F88F02
:105B800030B5012508E010C910C0AC0703D100E012
:105B9000641C9442FCD36D1C9D42F4D930BD00B509
:105BA0004FF40012536805229A4301D00B2000BD28
:105BB00040230422FFF7E4FF002000BD2DE9FF5F32
:105BC000804640680190D8F808000290D8F80C0090
:105BD0000D4600230390652203A91846FEF72BFD0E
:105BE000286000286FD1682201A9039BFEF723FDDE
:105BF0002860002879D1672202A9039BFEF71BFDCC
:105C00002860002871D10198002700F580100190CC
:105C1000FFF775FD00241848154912E050F82430AC
:105C2000D8F804209A420BD21146D8F80C2003F180
:105C300001001144814201D8274605E0671C03E0BA
:105C4000641C0A689442E9D9FFF751FD39462046A1
:105C5000FFF7CDFE2860002847D1FFF750FD0B4924
:105C6000D8F8100009684FF40016B0FBF1F013E00B
:105C700040041000900410002005100000C00F40E8
:105C80004404100032334E4C3C0410005404100005
:105C900050041000E00F2000F0612D49D8F81000EA
:105CA00009684843012101EB502040F40048FFF708
:105CB0001EFD4FF000094FF0070CDFF898A041F2ED
:105CC000831B03982BE010E0002330461A4640F275
:105CD00007110096FFF719FEDDE90101FFF75FFFED
:105CE00028B10B202860C6F81C90BDE8FF9F304605
:105CF000C6F8E8CFC6F8088000231A465946CDF802
:105D000000A0FFF702FE019800F580700190029854
:105D100000F5807002900398A0F580700390002831
:105D2000D2D1421E39462046FFF7FCFDDBE770B5B5
:105D30000D46044681684068FFF796FD28600028FC
:105D400005D1D4E901010022FFF7ECFD286070BD08
:105D50004C041000E00F2000FFFFFFFFFFFFFFFFDC
:105D6000FFFFFFFFFFFFFFFFFFFFFFFFFFFFFFFF43
:105D7000FFFFFFFFFFFFFFFFFFFFFFFFFFFFFFFF33
:105D8000FFFFFFFFFFFFFFFFFFFFFFFFFFFFFFFF23
:105D9000FFFFFFFFFFFFFFFFFFFFFFFFFFFFFFFF13
:105FF000FFF7D6BBFFFFFFFF6416FF1F040800007A
:10600000FC1F00101D00FF1FE100FF1FE300FF1F2A
:10601000E500FF1FE700FF1FE900FF1FDFF8184042
:10602000DFF81050266805EA06062660DFF800F063
:106030003D00FF1FFFBFFFFFC0C30F40DFF8702010
:10604000DFF88430DFF88850DFF88860D3F800404C
:10605000AC4218BFB44201D1DFF8704014604FF475
:10606000001240F245134FF0070414611360DFF88B
:106070004430D3F80020DFF84040D4F80040DFF887
:106080003C50D5F80050AC4203D0DFF83420D2F8B1
:106090000020A2F11F029546DFF828201047016872
:1060A0008D464168084701688D46416808470000F1
:1060B00084C10F403C041000D0051000DC00FF1F1D
:1060C000D800FF1F6F04FF1FFC02000021436587FB
:1060D0006587214378563412FF1F0010CDAB56342C
:1060E0007047FEE7FEE7FEE7FEE770477047704740
:1060F0007047FFFF2DE9FC41FE4EDFF8FC83FF4FA8
:10610000FF4D0024FE4801AA4621943801F0ABF867
:106110000028F7D17A2155F82020401C117005285D
:10612000F9DB0F23F64A00930523A2F194000199AD
:1061300001F0D7F80028E5D029680978522905D060
:10614000542903D0472901D04D2901D1012207E06C
:106150000022572901D0432901D1012400E0002465
:10616000D8F808103368994206D03B68994203D0AA
:10617000E44B1B68994201D1012A07D03268914251
:1061800002D03A68914209D1012C07D10F22132085
:10619000696801F0F4F801F033F8B3E700F046FF66
:1061A000B0E72DE9F04101F0AAFAD748046801F000
:1061B0009EFAD64FD64ED74D4FF00208C6F804804F
:1061C000A00301D5022000E0082079690142FCD13A
